:100000000C942A000C9447000C9447000C94470071
:100010000C9447000C9447000C9447000C94470044
:100020000C9447000C9447000C9447000C94470034
:100030000C9447000C9447000C9447000C94470024
:100040000C9447000C9447000C9447000C94470014
:100050000C94470011241FBECFE5D8E0DEBFCDBF12
:1000600010E0A0E6B0E0E6ECF5E002C005900D92ED
:10007000A03AB107D9F720E0A0EAB0E001C01D9294
:10008000A53AB207E1F70E9485020C94E1020C94B4
:100090000000E199FECF9FBB8EBB6DBBE29AE19A57
:1000A0000895E199FECF9FBB8EBBE09A8DB3089572
:1000B00080E090E00E9451008A3A79F060E081E0AF
:1000C00090E00E94490060E082E090E00E944900D8
:1000D0006AEA80E090E00C9449000895682F81E07E
:1000E00090E00E9449006AEA80E090E00C944900A8
:1000F00081E090E00C94510060E081E090E00E948B
:10010000490060E082E090E00E9449006AEA80E0F5
:1001100090E00C944900682F82E090E00C94490034
:1001200082E090E00C9451008AB3807E8ABB8BB34E
:100130008F618BBB1092A0001092A1001092A200C0
:100140001092A3001092A4000895CF93DF93AAE623
:10015000B0E0E0EAF0E080E090E029B34C9130E0DC
:10016000042E02C0359527950A94E2F720FD21C0A0
:10017000208121111FC0CFE4D3EC2197F1F700C0FB
:10018000000029B330E002C0359527954A95E2F783
:1001900020FD10C0FC01E056FF4F21E02083FC0150
:1001A000EE0FFF1FE05AFF4F80819181DF91CF91C9
:1001B000089510821196019631968530910569F661
:1001C00080E090E0F3CF0C9410021F93CF93DF9365
:1001D000CDB7DEB729970FB6F894DEBF0FBECDBFFF
:1001E000182F698760E080E00E9405028BE890E0AC
:1001F0000E94F801812F64E60E94D502805D898308
:10020000812F6AE00E94D502292F0E94D502905DBD
:100210009A83205D2B8310E21C831D831E831F8322
:100220001886CE0101960E94F80160E081E00E94EC
:10023000050285E990E00E94F801898564E60E9444
:10024000D502805D898389856AE00E94D502292FC5
:100250000E94D502905D9A83205D2B831C831D83B1
:100260001E831F831886CE0101960E94F8012996ED
:100270000FB6F894DEBF0FBECDBFDF91CF911F91B7
:100280000895CF93DF9300D000D0CDB7DEB7898338
:100290009A836B837C830E940D0260E080E00E9461
:1002A000050289819A810E94F8018B819C81892BAA
:1002B00071F060E081E00E9405028B819C810F90CB
:1002C0000F900F900F90DF91CF910C94F8010F9049
:1002D0000F900F900F90DF91CF91089587B38760B3
:1002E00087BB88B3887F88BB0895C09AC29A2FE7DE
:1002F0008AE196E0215080409040E1F700C0000084
:10030000C2982FE789EA93E0215080409040E1F7BE
:1003100000C00000C098089592E088B3866088BB52
:100320002FE73AE186E0215030408040E1F700C0FD
:10033000000088B3897F88BB2FE73AE186E021502F
:1003400030408040E1F700C00000913009F408958A
:1003500091E0E3CF88B3876088BB2FEF83EC99E00F
:10036000215080409040E1F700C0000088B3887FB2
:1003700088BB089588B3887F88BB089595B39F7024
:1003800095BB80FDAC9A81FDAD9A82FDAE9A83FD4E
:10039000AF9A969A82E08A95F1F700C0969887EC1A
:1003A00090E00197F1F700C000000895CF93C82FA7
:1003B000949882958F700E94BE018C2F8F700E943E
:1003C000BE01C150C23030F48FE99FE00197F1F7D0
:1003D00000C00000CF910895CF93C82F949A8295C2
:1003E0008F700E94BE018C2F8F70CF910C94BE0134
:1003F000CF93DF93EC018881811103C0DF91CF910E
:10040000089521960E94EC01F6CF811104C080E886
:10041000860F0C94D60180ECFBCF81E00C94D601C2
:1004200081B3806781BB84B3806F84BB82B38F78D4
:1004300082BB85B38F7085BB2FEF89EF90E0215091
:1004400080409040E1F700C0000083E00E94BE01C0
:100450008FE097E20197F1F700C0000083E00E946F
:10046000BE018BE291E00197F1F700C0000083E04C
:100470000E94BE0182E00E94BE0188E20E94D60175
:100480008CE00E94D60186E00E94D60181E00C94A7
:10049000D60110BC83E389B988E18AB986E880BDBA
:1004A00008955D9BFECF8CB90895CF93DF93EC0147
:1004B0008881811103C0DF91CF91089521960E9418
:1004C0005102F6CFCF93DF9300D000D0CDB7DEB787
:1004D000282F64E60E94D502805D8983822F6AE01E
:1004E0000E94D502292F0E94D502905D9A83205D3B
:1004F0002B831C82CE0101960E9455020F900F9013
:100500000F900F90DF91CF9108950E946E010E948D
:1005100094000E94E3000E9458000E949000C82F9F
:100520000E947800D82F6FE670E08CE790E00E9480
:1005300041016D2F8C2F0E94E5000E94A5008330A1
:10054000910521F148F481309105B1F00297A9F7A6
:10055000C115C9F0C15013C08430910511F1059740
:1005600061F70E947C000E94AA0160E080E00E9486
:10057000E500C0E0D0E0E1CFCF3F29F0CF5F8C2F86
:100580000E948B00D6CF0E948C01D7CF8C2F0E9467
:100590006E000E9475016C2F8C2F0E94E500DC2FED
:1005A000CCCF0E947800D82FC4CF992778E0880F4D
:1005B000991F961708F0961B881F7A95C9F78095A2
:0605C0000895F894FFCF3E
:1005C60001000200030004000500000102030453B9
:1005D600595354454D2052454144590045455052C2
:1005E6004F4D2053544F52414745004355525245B3
:1005F6004E543A200053415645443A2020200000EC
:00000001FF
