:100000000C942A000C9447000C9447000C94470071
:100010000C9447000C9447000C9447000C94470044
:100020000C9447000C9447000C9447000C94470034
:100030000C9447000C9447000C9447000C94470024
:100040000C9447000C9447000C9447000C94470014
:100050000C94470011241FBECFE5D8E0DEBFCDBF12
:1000600010E0A0E6B0E0E4E9F5E002C005900D92F2
:10007000A03AB107D9F720E0A0EAB0E001C01D9294
:10008000A53AB207E1F70E9472020C94C8020C94E0
:1000900000008AB3807E8ABB8BB38F618BBB1092CA
:1000A000A0001092A1001092A2001092A300109242
:1000B000A4000895CF93DF93AAE6B0E0E0EAF0E071
:1000C00080E090E029B34C9130E0042E02C03595D9
:1000D00027950A94E2F720FD21C0208121111FC03D
:1000E000CFE4D3EC2197F1F700C0000029B330E052
:1000F00002C0359527954A95E2F720FD10C0FC0116
:10010000E056FF4F21E02083FC01EE0FFF1FE05A75
:10011000FF4F80819181DF91CF91089510821196D8
:10012000019631968530910569F680E090E0F3CF35
:100130000C94FD011F93CF93DF93CDB7DEB72997C2
:100140000FB6F894DEBF0FBECDBF182F698760E0F1
:1001500080E00E94F2018FE690E00E94E501812F8D
:1001600064E60E94BC02805D8983812F6AE00E9460
:10017000BC02292F0E94BC02905D9A83205D2B83D4
:1001800010E21C831D831E831F831886CE010196F7
:100190000E94E50160E081E00E94F20189E790E0C1
:1001A0000E94E501898564E60E94BC02805D898326
:1001B00089856AE00E94BC02292F0E94BC02905DE2
:1001C0009A83205D2B831C831D831E831F831886C7
:1001D000CE0101960E94E50129960FB6F894DEBF84
:1001E0000FBECDBFDF91CF911F910895CF93DF93C5
:1001F00000D000D0CDB7DEB789839A836B837C8330
:100200000E94FA0160E080E00E94F20189819A81F7
:100210000E94E5018B819C81892B71F060E081E077
:100220000E94F2018B819C810F900F900F900F9094
:10023000DF91CF910C94E5010F900F900F900F90EC
:10024000DF91CF910895E199FECF9FBB8EBB6DBB2F
:10025000E29AE19A0895E199FECF9FBB8EBBE09AA6
:100260008DB3089580E090E00E942B018A3A51F00E
:1002700060E081E090E00E9423016AEA80E090E083
:100280000C9423010895682F81E090E00E942301DF
:100290006AEA80E090E00C94230181E090E00C9405
:1002A0002B0160E081E090E00E9423016AEA80E097
:1002B00090E00C94230187B3876087BB88B3887F65
:1002C00088BB0895C09AC29A2FE78AE196E0215030
:1002D00080409040E1F700C00000C2982FE789EA13
:1002E00093E0215080409040E1F700C00000C098AA
:1002F000089592E088B3866088BB2FE73AE186E0F4
:10030000215030408040E1F700C0000088B3897F71
:1003100088BB2FE73AE186E0215030408040E1F78A
:1003200000C00000913009F4089591E0E3CF88B354
:10033000876088BB2FEF83EC99E02150804090408C
:10034000E1F700C0000088B3887F88BB089588B3B8
:10035000887F88BB089595B39F7095BB80FDAC9A4C
:1003600081FDAD9A82FDAE9A83FDAF9A969A82E0A6
:100370008A95F1F700C0969887EC90E00197F1F725
:1003800000C000000895CF93C82F949882958F7075
:100390000E94AB018C2F8F700E94AB01C150C23004
:1003A00030F48FE99FE00197F1F700C00000CF9192
:1003B0000895CF93C82F949A82958F700E94AB01B5
:1003C0008C2F8F70CF910C94AB01CF93DF93EC0106
:1003D0008881811103C0DF91CF91089521960E94F9
:1003E000D901F6CF811104C080E8860F0C94C301B7
:1003F00080ECFBCF81E00C94C30181B3806781BBAB
:1004000084B3806F84BB82B38F7882BB85B38F70D7
:1004100085BB2FEF89EF90E0215080409040E1F7BD
:1004200000C0000083E00E94AB018FE097E20197DB
:10043000F1F700C0000083E00E94AB018BE291E085
:100440000197F1F700C0000083E00E94AB0182E059
:100450000E94AB0188E20E94C3018CE00E94C301AC
:1004600086E00E94C30181E00C94C30110BC83E3C9
:1004700089B988E18AB986E880BD08955D9BFECF81
:100480008CB90895CF93DF93EC018881811103C06B
:10049000DF91CF91089521960E943E02F6CFCF932F
:1004A000DF9300D000D0CDB7DEB7282F64E60E94DE
:1004B000BC02805D8983822F6AE00E94BC02292FE2
:1004C0000E94BC02905D9A83205D2B831C82CE012A
:1004D00001960E9442020F900F900F900F90DF91B3
:1004E000CF9108950E945B010E9449000E949800EC
:1004F0000E9432010E944D01C82F63E870E080E93C
:1005000090E00E94F6006C2F8C2F0E949A00DC2F46
:100510000E945A008330910529F148F481309105F9
:10052000B1F00297A9F7C115D1F0C15013C08430C2
:100530009105F1F0059761F70E9451010E94970122
:1005400060E080E00E949A00C0E0D0E0E1CFCF3FC1
:1005500031F0CF5F6D2F8C2F0E949A00D9CF0E946F
:100560007901D6CF8C2F0E9443010E946201CBCF2C
:100570000E944D01D82FEECF992778E0880F991F60
:10058000961708F0961B881F7A95C9F780950895ED
:04059000F894FFCF0D
:1005940001000200030004000500000102030443FB
:1005A400555252454E543A200053415645443A2040
:1005B40020200053595354454D205245414459007D
:1005C400454550524F4D2053544F5241474500002A
:00000001FF
